{
    "contractName": "BlitsLoans",
    "abi": [
        {
            "anonymous": false,
            "inputs": [
                {
                    "indexed": false,
                    "internalType": "uint256",
                    "name": "loanId",
                    "type": "uint256"
                },
                {
                    "indexed": false,
                    "internalType": "bytes32",
                    "name": "secretB1",
                    "type": "bytes32"
                },
                {
                    "indexed": false,
                    "internalType": "enum BlitsLoans.State",
                    "name": "state",
                    "type": "uint8"
                }
            ],
            "name": "CancelLoan",
            "type": "event"
        },
        {
            "anonymous": false,
            "inputs": [
                {
                    "indexed": false,
                    "internalType": "uint256",
                    "name": "loanId",
                    "type": "uint256"
                },
                {
                    "indexed": false,
                    "internalType": "address",
                    "name": "borrower",
                    "type": "address"
                },
                {
                    "indexed": false,
                    "internalType": "bytes32",
                    "name": "secretHashA1",
                    "type": "bytes32"
                },
                {
                    "indexed": false,
                    "internalType": "enum BlitsLoans.State",
                    "name": "state",
                    "type": "uint8"
                }
            ],
            "name": "LoanAssignedAndApproved",
            "type": "event"
        },
        {
            "anonymous": false,
            "inputs": [
                {
                    "indexed": false,
                    "internalType": "uint256",
                    "name": "loanId",
                    "type": "uint256"
                }
            ],
            "name": "LoanCreated",
            "type": "event"
        },
        {
            "anonymous": false,
            "inputs": [
                {
                    "indexed": false,
                    "internalType": "uint256",
                    "name": "loanId",
                    "type": "uint256"
                },
                {
                    "indexed": false,
                    "internalType": "uint256",
                    "name": "amount",
                    "type": "uint256"
                },
                {
                    "indexed": false,
                    "internalType": "enum BlitsLoans.State",
                    "name": "state",
                    "type": "uint8"
                }
            ],
            "name": "LoanFunded",
            "type": "event"
        },
        {
            "anonymous": false,
            "inputs": [
                {
                    "indexed": false,
                    "internalType": "uint256",
                    "name": "loanId",
                    "type": "uint256"
                },
                {
                    "indexed": false,
                    "internalType": "address",
                    "name": "borrower",
                    "type": "address"
                },
                {
                    "indexed": false,
                    "internalType": "uint256",
                    "name": "amount",
                    "type": "uint256"
                },
                {
                    "indexed": false,
                    "internalType": "bytes32",
                    "name": "secretA1",
                    "type": "bytes32"
                },
                {
                    "indexed": false,
                    "internalType": "enum BlitsLoans.State",
                    "name": "state",
                    "type": "uint8"
                }
            ],
            "name": "LoanPrincipalWithdrawn",
            "type": "event"
        },
        {
            "anonymous": false,
            "inputs": [
                {
                    "indexed": false,
                    "internalType": "uint256",
                    "name": "loanId",
                    "type": "uint256"
                },
                {
                    "indexed": false,
                    "internalType": "uint256",
                    "name": "amount",
                    "type": "uint256"
                },
                {
                    "indexed": false,
                    "internalType": "enum BlitsLoans.State",
                    "name": "state",
                    "type": "uint8"
                }
            ],
            "name": "LoanRepaymentAccepted",
            "type": "event"
        },
        {
            "anonymous": false,
            "inputs": [
                {
                    "indexed": false,
                    "internalType": "uint256",
                    "name": "loanId",
                    "type": "uint256"
                },
                {
                    "indexed": false,
                    "internalType": "address",
                    "name": "borrower",
                    "type": "address"
                },
                {
                    "indexed": false,
                    "internalType": "uint256",
                    "name": "amount",
                    "type": "uint256"
                },
                {
                    "indexed": false,
                    "internalType": "enum BlitsLoans.State",
                    "name": "state",
                    "type": "uint8"
                }
            ],
            "name": "Payback",
            "type": "event"
        },
        {
            "anonymous": false,
            "inputs": [
                {
                    "indexed": false,
                    "internalType": "uint256",
                    "name": "loanId",
                    "type": "uint256"
                },
                {
                    "indexed": false,
                    "internalType": "address",
                    "name": "borrower",
                    "type": "address"
                },
                {
                    "indexed": false,
                    "internalType": "uint256",
                    "name": "amount",
                    "type": "uint256"
                },
                {
                    "indexed": false,
                    "internalType": "enum BlitsLoans.State",
                    "name": "state",
                    "type": "uint8"
                }
            ],
            "name": "RefundPayback",
            "type": "event"
        },
        {
            "inputs": [
                {
                    "internalType": "address",
                    "name": "_lenderAuto",
                    "type": "address"
                },
                {
                    "internalType": "bytes32",
                    "name": "_secretHashB1",
                    "type": "bytes32"
                },
                {
                    "internalType": "bytes32",
                    "name": "_secretHashAutoB1",
                    "type": "bytes32"
                },
                {
                    "internalType": "uint256[3]",
                    "name": "_expirations",
                    "type": "uint256[3]"
                },
                {
                    "internalType": "uint256",
                    "name": "_principal",
                    "type": "uint256"
                },
                {
                    "internalType": "uint256",
                    "name": "_interest",
                    "type": "uint256"
                },
                {
                    "internalType": "address",
                    "name": "_tokenAdress",
                    "type": "address"
                }
            ],
            "name": "createLoan",
            "outputs": [
                {
                    "internalType": "uint256",
                    "name": "loanId",
                    "type": "uint256"
                }
            ],
            "stateMutability": "nonpayable",
            "type": "function"
        },
        {
            "inputs": [
                {
                    "internalType": "uint256",
                    "name": "_loanId",
                    "type": "uint256"
                }
            ],
            "name": "fetchLoan",
            "outputs": [
                {
                    "internalType": "address[3]",
                    "name": "actors",
                    "type": "address[3]"
                },
                {
                    "internalType": "bytes32[3]",
                    "name": "secretHashes",
                    "type": "bytes32[3]"
                },
                {
                    "internalType": "bytes32[3]",
                    "name": "secrets",
                    "type": "bytes32[3]"
                },
                {
                    "internalType": "uint256[3]",
                    "name": "expirations",
                    "type": "uint256[3]"
                },
                {
                    "internalType": "uint256[2]",
                    "name": "details",
                    "type": "uint256[2]"
                },
                {
                    "internalType": "enum BlitsLoans.State",
                    "name": "state",
                    "type": "uint8"
                },
                {
                    "internalType": "contract ERC20",
                    "name": "token",
                    "type": "address"
                }
            ],
            "stateMutability": "view",
            "type": "function",
            "constant": true
        },
        {
            "inputs": [],
            "name": "getBytes32ArrayForInput",
            "outputs": [
                {
                    "internalType": "bytes32[2]",
                    "name": "b32Arr",
                    "type": "bytes32[2]"
                }
            ],
            "stateMutability": "pure",
            "type": "function",
            "constant": true
        },
        {
            "inputs": [
                {
                    "internalType": "uint256",
                    "name": "_loanId",
                    "type": "uint256"
                }
            ],
            "name": "fund",
            "outputs": [],
            "stateMutability": "nonpayable",
            "type": "function"
        },
        {
            "inputs": [
                {
                    "internalType": "uint256",
                    "name": "_loanId",
                    "type": "uint256"
                },
                {
                    "internalType": "address payable",
                    "name": "_borrower",
                    "type": "address"
                },
                {
                    "internalType": "bytes32",
                    "name": "_secretHashA1",
                    "type": "bytes32"
                }
            ],
            "name": "setBorrowerAndApprove",
            "outputs": [],
            "stateMutability": "nonpayable",
            "type": "function"
        },
        {
            "inputs": [
                {
                    "internalType": "uint256",
                    "name": "_loanId",
                    "type": "uint256"
                },
                {
                    "internalType": "bytes32",
                    "name": "_secretA1",
                    "type": "bytes32"
                }
            ],
            "name": "withdraw",
            "outputs": [],
            "stateMutability": "nonpayable",
            "type": "function"
        },
        {
            "inputs": [
                {
                    "internalType": "uint256",
                    "name": "_loanId",
                    "type": "uint256"
                },
                {
                    "internalType": "bytes32",
                    "name": "_secretB1",
                    "type": "bytes32"
                }
            ],
            "name": "acceptRepayment",
            "outputs": [],
            "stateMutability": "nonpayable",
            "type": "function"
        },
        {
            "inputs": [
                {
                    "internalType": "uint256",
                    "name": "_loanId",
                    "type": "uint256"
                },
                {
                    "internalType": "bytes32",
                    "name": "_secretB1",
                    "type": "bytes32"
                }
            ],
            "name": "cancelLoanBeforePrincipalWithdraw",
            "outputs": [],
            "stateMutability": "nonpayable",
            "type": "function"
        },
        {
            "inputs": [
                {
                    "internalType": "uint256",
                    "name": "_loanId",
                    "type": "uint256"
                }
            ],
            "name": "payback",
            "outputs": [],
            "stateMutability": "nonpayable",
            "type": "function"
        },
        {
            "inputs": [
                {
                    "internalType": "uint256",
                    "name": "_loanId",
                    "type": "uint256"
                }
            ],
            "name": "refundPayback",
            "outputs": [],
            "stateMutability": "nonpayable",
            "type": "function"
        }
    ],
    "bytecode": "0x608060405234801561001057600080fd5b50612695806100206000396000f3fe608060405234801561001057600080fd5b506004361061009d5760003560e01c8063a8d2021a11610066578063a8d2021a1461030a578063c86fdadf14610342578063ca1d209d1461037a578063cb439cfd146103a8578063dc5b98971461048a5761009d565b806265f9b5146100a257806318f45a96146100e85780632a6d48f7146101405780635f0acff61461016e578063a846c2fd146102dc575b600080fd5b6100aa6104c2565b6040518082600260200280838360005b838110156100d55780820151818401526020810190506100ba565b5050505090500191505060405180910390f35b61013e600480360360608110156100fe57600080fd5b8101908080359060200190929190803573ffffffffffffffffffffffffffffffffffffffff16906020019092919080359060200190929190505050610524565b005b61016c6004803603602081101561015657600080fd5b81019080803590602001909291905050506107b8565b005b61019a6004803603602081101561018457600080fd5b8101908080359060200190929190505050610b4a565b6040518088600360200280838360005b838110156101c55780820151818401526020810190506101aa565b5050505090500187600360200280838360005b838110156101f35780820151818401526020810190506101d8565b5050505090500186600360200280838360005b83811015610221578082015181840152602081019050610206565b5050505090500185600360200280838360005b8381101561024f578082015181840152602081019050610234565b5050505090500184600260200280838360005b8381101561027d578082015181840152602081019050610262565b5050505090500183600781111561029057fe5b60ff1681526020018273ffffffffffffffffffffffffffffffffffffffff1673ffffffffffffffffffffffffffffffffffffffff16815260200197505050505050505060405180910390f35b610308600480360360208110156102f257600080fd5b8101908080359060200190929190505050610e72565b005b6103406004803603604081101561032057600080fd5b810190808035906020019092919080359060200190929190505050611196565b005b6103786004803603604081101561035857600080fd5b81019080803590602001909291908035906020019092919050505061154c565b005b6103a66004803603602081101561039057600080fd5b8101908080359060200190929190505050611a2c565b005b61047460048036036101208110156103bf57600080fd5b81019080803573ffffffffffffffffffffffffffffffffffffffff169060200190929190803590602001909291908035906020019092919080606001906003806020026040519081016040528092919082600360200280828437600081840152601f19601f82011690508083019250505050505091929192908035906020019092919080359060200190929190803573ffffffffffffffffffffffffffffffffffffffff169060200190929190505050611c78565b6040518082815260200191505060405180910390f35b6104c0600480360360408110156104a057600080fd5b810190808035906020019092919080359060200190929190505050611fb2565b005b6104ca6125b5565b60405180604001604052807f63616e646964617465310000000000000000000000000000000000000000000081526020017f6332000000000000000000000000000000000000000000000000000000000000815250905090565b6001600781111561053157fe5b600080858152602001908152602001600020600e0160009054906101000a900460ff16600781111561055f57fe5b1461056957600080fd5b6000808481526020019081526020016000206009015442111561058b57600080fd5b60008084815260200190815260200160002060010160009054906101000a900473ffffffffffffffffffffffffffffffffffffffff1673ffffffffffffffffffffffffffffffffffffffff163373ffffffffffffffffffffffffffffffffffffffff16148061065a575060008084815260200190815260200160002060020160009054906101000a900473ffffffffffffffffffffffffffffffffffffffff1673ffffffffffffffffffffffffffffffffffffffff163373ffffffffffffffffffffffffffffffffffffffff16145b61066357600080fd5b6002600080858152602001908152602001600020600e0160006101000a81548160ff0219169083600781111561069557fe5b02179055508160008085815260200190815260200160002060000160006101000a81548173ffffffffffffffffffffffffffffffffffffffff021916908373ffffffffffffffffffffffffffffffffffffffff16021790555080600080858152602001908152602001600020600301819055507f15561d455d8a54d15a2764d6dd5847891c1e2c39fe453ba40a80cb6b08d58f97838383600080888152602001908152602001600020600e0160009054906101000a900460ff16604051808581526020018473ffffffffffffffffffffffffffffffffffffffff1673ffffffffffffffffffffffffffffffffffffffff16815260200183815260200182600781111561079d57fe5b60ff16815260200194505050505060405180910390a1505050565b600080828152602001908152602001600020600b015442116107d957600080fd5b600460078111156107e657fe5b600080838152602001908152602001600020600e0160009054906101000a900460ff16600781111561081457fe5b1461081e57600080fd5b60008082815260200190815260200160002060000160009054906101000a900473ffffffffffffffffffffffffffffffffffffffff1673ffffffffffffffffffffffffffffffffffffffff163373ffffffffffffffffffffffffffffffffffffffff161461088b57600080fd5b6005600080838152602001908152602001600020600e0160006101000a81548160ff021916908360078111156108bd57fe5b02179055506000610901600080848152602001908152602001600020600d0154600080858152602001908152602001600020600c015461252d90919063ffffffff16565b90506000806000848152602001908152602001600020600c01819055506000806000848152602001908152602001600020600d0181905550600080838152602001908152602001600020600e0160019054906101000a900473ffffffffffffffffffffffffffffffffffffffff1673ffffffffffffffffffffffffffffffffffffffff1663a9059cbb60008085815260200190815260200160002060000160009054906101000a900473ffffffffffffffffffffffffffffffffffffffff16836040518363ffffffff1660e01b8152600401808373ffffffffffffffffffffffffffffffffffffffff1673ffffffffffffffffffffffffffffffffffffffff16815260200182815260200192505050602060405180830381600087803b158015610a2a57600080fd5b505af1158015610a3e573d6000803e3d6000fd5b505050506040513d6020811015610a5457600080fd5b8101908080519060200190929190505050507f8ad072c1cbc9b48ec085df07189c587a9f11d6da57d32e34178804b26753e7548260008085815260200190815260200160002060000160009054906101000a900473ffffffffffffffffffffffffffffffffffffffff1683600080878152602001908152602001600020600e0160009054906101000a900460ff16604051808581526020018473ffffffffffffffffffffffffffffffffffffffff1673ffffffffffffffffffffffffffffffffffffffff168152602001838152602001826007811115610b3057fe5b60ff16815260200194505050505060405180910390a15050565b610b526125d7565b610b5a6125f9565b610b626125f9565b610b6a61261b565b610b7261263d565b60008060405180606001604052806000808b815260200190815260200160002060000160009054906101000a900473ffffffffffffffffffffffffffffffffffffffff1673ffffffffffffffffffffffffffffffffffffffff1673ffffffffffffffffffffffffffffffffffffffff1681526020016000808b815260200190815260200160002060010160009054906101000a900473ffffffffffffffffffffffffffffffffffffffff1673ffffffffffffffffffffffffffffffffffffffff1673ffffffffffffffffffffffffffffffffffffffff1681526020016000808b815260200190815260200160002060020160009054906101000a900473ffffffffffffffffffffffffffffffffffffffff1673ffffffffffffffffffffffffffffffffffffffff1673ffffffffffffffffffffffffffffffffffffffff16815250965060405180606001604052806000808b81526020019081526020016000206003015481526020016000808b81526020019081526020016000206004015481526020016000808b815260200190815260200160002060050154815250955060405180606001604052806000808b81526020019081526020016000206006015481526020016000808b81526020019081526020016000206007015481526020016000808b815260200190815260200160002060080154815250945060405180606001604052806000808b81526020019081526020016000206009015481526020016000808b8152602001908152602001600020600a015481526020016000808b8152602001908152602001600020600b01548152509350600080898152602001908152602001600020600e0160009054906101000a900460ff16915060405180604001604052806000808b8152602001908152602001600020600c015481526020016000808b8152602001908152602001600020600d01548152509250600080898152602001908152602001600020600e0160019054906101000a900473ffffffffffffffffffffffffffffffffffffffff169050919395979092949650565b60036007811115610e7f57fe5b600080838152602001908152602001600020600e0160009054906101000a900460ff166007811115610ead57fe5b14610eb757600080fd5b600080828152602001908152602001600020600a0154421115610ed957600080fd5b6000610f18600080848152602001908152602001600020600d0154600080858152602001908152602001600020600c015461252d90919063ffffffff16565b90506004600080848152602001908152602001600020600e0160006101000a81548160ff02191690836007811115610f4c57fe5b0217905550600080838152602001908152602001600020600e0160019054906101000a900473ffffffffffffffffffffffffffffffffffffffff1673ffffffffffffffffffffffffffffffffffffffff166323b872dd60008085815260200190815260200160002060000160009054906101000a900473ffffffffffffffffffffffffffffffffffffffff1630846040518463ffffffff1660e01b8152600401808473ffffffffffffffffffffffffffffffffffffffff1673ffffffffffffffffffffffffffffffffffffffff1681526020018373ffffffffffffffffffffffffffffffffffffffff1673ffffffffffffffffffffffffffffffffffffffff1681526020018281526020019350505050602060405180830381600087803b15801561107657600080fd5b505af115801561108a573d6000803e3d6000fd5b505050506040513d60208110156110a057600080fd5b8101908080519060200190929190505050507f03fade9da3e18fb30bbc3ccea1b3ac98916572447b9f0d5820b46cd2f464f4058260008085815260200190815260200160002060000160009054906101000a900473ffffffffffffffffffffffffffffffffffffffff1683600080878152602001908152602001600020600e0160009054906101000a900460ff16604051808581526020018473ffffffffffffffffffffffffffffffffffffffff1673ffffffffffffffffffffffffffffffffffffffff16815260200183815260200182600781111561117c57fe5b60ff16815260200194505050505060405180910390a15050565b600260078111156111a357fe5b600080848152602001908152602001600020600e0160009054906101000a900460ff1660078111156111d157fe5b146111db57600080fd5b60008083815260200190815260200160002060030154600282604051602001808281526020019150506040516020818303038152906040526040518082805190602001908083835b602083106112465780518252602082019150602081019050602083039250611223565b6001836020036101000a038019825116818451168082178552505050505050905001915050602060405180830381855afa158015611288573d6000803e3d6000fd5b5050506040513d602081101561129d57600080fd5b8101908080519060200190929190505050146112b857600080fd5b6003600080848152602001908152602001600020600e0160006101000a81548160ff021916908360078111156112ea57fe5b02179055508060008084815260200190815260200160002060060181905550600080838152602001908152602001600020600e0160019054906101000a900473ffffffffffffffffffffffffffffffffffffffff1673ffffffffffffffffffffffffffffffffffffffff1663a9059cbb60008085815260200190815260200160002060000160009054906101000a900473ffffffffffffffffffffffffffffffffffffffff16600080868152602001908152602001600020600c01546040518363ffffffff1660e01b8152600401808373ffffffffffffffffffffffffffffffffffffffff1673ffffffffffffffffffffffffffffffffffffffff16815260200182815260200192505050602060405180830381600087803b15801561140f57600080fd5b505af1158015611423573d6000803e3d6000fd5b505050506040513d602081101561143957600080fd5b8101908080519060200190929190505050507f827fa5e65785b8b19e886d94ed9dbb8910fe17b3d88481e8923a10eeee93d22c8260008085815260200190815260200160002060000160009054906101000a900473ffffffffffffffffffffffffffffffffffffffff16600080868152602001908152602001600020600c015484600080888152602001908152602001600020600e0160009054906101000a900460ff16604051808681526020018573ffffffffffffffffffffffffffffffffffffffff1673ffffffffffffffffffffffffffffffffffffffff16815260200184815260200183815260200182600781111561153157fe5b60ff1681526020019550505050505060405180910390a15050565b60008083815260200190815260200160002060040154600282604051602001808281526020019150506040516020818303038152906040526040518082805190602001908083835b602083106115b75780518252602082019150602081019050602083039250611594565b6001836020036101000a038019825116818451168082178552505050505050905001915050602060405180830381855afa1580156115f9573d6000803e3d6000fd5b5050506040513d602081101561160e57600080fd5b810190808051906020019092919050505014806116fb575060008083815260200190815260200160002060050154600282604051602001808281526020019150506040516020818303038152906040526040518082805190602001908083835b60208310611691578051825260208201915060208101905060208303925061166e565b6001836020036101000a038019825116818451168082178552505050505050905001915050602060405180830381855afa1580156116d3573d6000803e3d6000fd5b5050506040513d60208110156116e857600080fd5b8101908080519060200190929190505050145b61176d576040517f08c379a000000000000000000000000000000000000000000000000000000000815260040180806020018281038252600e8152602001807f496e76616c69642073656372657400000000000000000000000000000000000081525060200191505060405180910390fd5b600080838152602001908152602001600020600b015442111561178f57600080fd5b6001600781111561179c57fe5b600080848152602001908152602001600020600e0160009054906101000a900460ff1660078111156117ca57fe5b148061180e5750600260078111156117de57fe5b600080848152602001908152602001600020600e0160009054906101000a900460ff16600781111561180c57fe5b145b61181757600080fd5b6007600080848152602001908152602001600020600e0160006101000a81548160ff0219169083600781111561184957fe5b02179055506000806000848152602001908152602001600020600c015490506000806000858152602001908152602001600020600c0181905550600080848152602001908152602001600020600e0160019054906101000a900473ffffffffffffffffffffffffffffffffffffffff1673ffffffffffffffffffffffffffffffffffffffff1663a9059cbb60008086815260200190815260200160002060010160009054906101000a900473ffffffffffffffffffffffffffffffffffffffff16836040518363ffffffff1660e01b8152600401808373ffffffffffffffffffffffffffffffffffffffff1673ffffffffffffffffffffffffffffffffffffffff16815260200182815260200192505050602060405180830381600087803b15801561197457600080fd5b505af1158015611988573d6000803e3d6000fd5b505050506040513d602081101561199e57600080fd5b8101908080519060200190929190505050507fc3b6086c2216f501645189efd73c16e4944088e00825015aadf85b5d02cd42bb8383600080878152602001908152602001600020600e0160009054906101000a900460ff1660405180848152602001838152602001826007811115611a1257fe5b60ff168152602001935050505060405180910390a1505050565b60006007811115611a3957fe5b600080838152602001908152602001600020600e0160009054906101000a900460ff166007811115611a6757fe5b14611a7157600080fd5b600080828152602001908152602001600020600e0160019054906101000a900473ffffffffffffffffffffffffffffffffffffffff1673ffffffffffffffffffffffffffffffffffffffff166323b872dd3330600080868152602001908152602001600020600c01546040518463ffffffff1660e01b8152600401808473ffffffffffffffffffffffffffffffffffffffff1673ffffffffffffffffffffffffffffffffffffffff1681526020018373ffffffffffffffffffffffffffffffffffffffff1673ffffffffffffffffffffffffffffffffffffffff1681526020018281526020019350505050602060405180830381600087803b158015611b7657600080fd5b505af1158015611b8a573d6000803e3d6000fd5b505050506040513d6020811015611ba057600080fd5b8101908080519060200190929190505050506001600080838152602001908152602001600020600e0160006101000a81548160ff02191690836007811115611be457fe5b02179055507fa8f5536865250e649f5cbb6ad7e2813718f1185bbef4904f2e4a5dcb6d249baa81600080848152602001908152602001600020600c0154600080858152602001908152602001600020600e0160009054906101000a900460ff1660405180848152602001838152602001826007811115611c6057fe5b60ff168152602001935050505060405180910390a150565b60006001805401600181905550604051806102000160405280600073ffffffffffffffffffffffffffffffffffffffff1681526020013373ffffffffffffffffffffffffffffffffffffffff1681526020018973ffffffffffffffffffffffffffffffffffffffff1681526020016000801916815260200188815260200187815260200160008019168152602001600080191681526020016000801916815260200186600060038110611d2757fe5b6020020151815260200186600160038110611d3e57fe5b6020020151815260200186600260038110611d5557fe5b6020020151815260200185815260200184815260200160006007811115611d7857fe5b81526020018373ffffffffffffffffffffffffffffffffffffffff16815250600080600154815260200190815260200160002060008201518160000160006101000a81548173ffffffffffffffffffffffffffffffffffffffff021916908373ffffffffffffffffffffffffffffffffffffffff16021790555060208201518160010160006101000a81548173ffffffffffffffffffffffffffffffffffffffff021916908373ffffffffffffffffffffffffffffffffffffffff16021790555060408201518160020160006101000a81548173ffffffffffffffffffffffffffffffffffffffff021916908373ffffffffffffffffffffffffffffffffffffffff160217905550606082015181600301556080820151816004015560a0820151816005015560c0820151816006015560e082015181600701556101008201518160080155610120820151816009015561014082015181600a015561016082015181600b015561018082015181600c01556101a082015181600d01556101c082015181600e0160006101000a81548160ff02191690836007811115611f1957fe5b02179055506101e082015181600e0160016101000a81548173ffffffffffffffffffffffffffffffffffffffff021916908373ffffffffffffffffffffffffffffffffffffffff1602179055509050507f2abd59ed776138fb6191e8e3313cd669b51d5a2cab430c2ba0bf2f0cf0c0c4256001546040518082815260200191505060405180910390a16001549050979650505050505050565b60008083815260200190815260200160002060040154600282604051602001808281526020019150506040516020818303038152906040526040518082805190602001908083835b6020831061201d5780518252602082019150602081019050602083039250611ffa565b6001836020036101000a038019825116818451168082178552505050505050905001915050602060405180830381855afa15801561205f573d6000803e3d6000fd5b5050506040513d602081101561207457600080fd5b81019080805190602001909291905050501480612161575060008083815260200190815260200160002060050154600282604051602001808281526020019150506040516020818303038152906040526040518082805190602001908083835b602083106120f757805182526020820191506020810190506020830392506120d4565b6001836020036101000a038019825116818451168082178552505050505050905001915050602060405180830381855afa158015612139573d6000803e3d6000fd5b5050506040513d602081101561214e57600080fd5b8101908080519060200190929190505050145b6121d3576040517f08c379a000000000000000000000000000000000000000000000000000000000815260040180806020018281038252600e8152602001807f496e76616c69642073656372657400000000000000000000000000000000000081525060200191505060405180910390fd5b600080838152602001908152602001600020600b015442111561225e576040517f08c379a00000000000000000000000000000000000000000000000000000000081526004018080602001828103825260158152602001807f41636365707420706572696f642065787069726564000000000000000000000081525060200191505060405180910390fd5b6004600781111561226b57fe5b600080848152602001908152602001600020600e0160009054906101000a900460ff16600781111561229957fe5b1461230c576040517f08c379a000000000000000000000000000000000000000000000000000000000815260040180806020018281038252601c8152602001807f546865206c6f616e20686173206e6f74206265656e207265706169640000000081525060200191505060405180910390fd5b6006600080848152602001908152602001600020600e0160006101000a81548160ff0219169083600781111561233e57fe5b02179055506000612382600080858152602001908152602001600020600d0154600080868152602001908152602001600020600c015461252d90919063ffffffff16565b9050600080848152602001908152602001600020600e0160019054906101000a900473ffffffffffffffffffffffffffffffffffffffff1673ffffffffffffffffffffffffffffffffffffffff1663a9059cbb60008086815260200190815260200160002060010160009054906101000a900473ffffffffffffffffffffffffffffffffffffffff16836040518363ffffffff1660e01b8152600401808373ffffffffffffffffffffffffffffffffffffffff1673ffffffffffffffffffffffffffffffffffffffff16815260200182815260200192505050602060405180830381600087803b15801561247557600080fd5b505af1158015612489573d6000803e3d6000fd5b505050506040513d602081101561249f57600080fd5b8101908080519060200190929190505050507f472a39207739f0adbff7e384ba71ae18ccc452bc830640838d019807eb69589e8382600080878152602001908152602001600020600e0160009054906101000a900460ff166040518084815260200183815260200182600781111561251357fe5b60ff168152602001935050505060405180910390a1505050565b6000808284019050838110156125ab576040517f08c379a000000000000000000000000000000000000000000000000000000000815260040180806020018281038252601b8152602001807f536166654d6174683a206164646974696f6e206f766572666c6f77000000000081525060200191505060405180910390fd5b8091505092915050565b6040518060400160405280600290602082028038833980820191505090505090565b6040518060600160405280600390602082028038833980820191505090505090565b6040518060600160405280600390602082028038833980820191505090505090565b6040518060600160405280600390602082028038833980820191505090505090565b604051806040016040528060029060208202803883398082019150509050509056fea2646970667358221220959a20b38d5d1dcf09401f51c16eb07a7020a317b84afe7e2a0c6ca056aeb16264736f6c63430006020033",
    "source": "pragma solidity ^0.6.0;\r\nimport \"openzeppelin-solidity/contracts/token/ERC20/ERC20.sol\";\r\nimport \"openzeppelin-solidity/contracts/math/SafeMath.sol\";\r\n\r\ncontract BlitsLoans {\r\n    using SafeMath for uint256;\r\n\r\n    enum State {\r\n        Open,\r\n        Funded,\r\n        Approved,\r\n        Withdrawn,\r\n        Repaid,\r\n        PaybackRefunded,\r\n        Closed,\r\n        Canceled\r\n    }\r\n\r\n    struct Loan {\r\n        // Actors\r\n        address payable borrower;\r\n        address payable lender;\r\n        address lenderAuto;\r\n        // Hashes\r\n        bytes32 secretHashA1;\r\n        bytes32 secretHashB1;\r\n        bytes32 secretHashAutoB1;\r\n        // Secrets\r\n        bytes32 secretA1;\r\n        bytes32 secretB1;\r\n        bytes32 secretAutoB1;\r\n        // Expiration Dates\r\n        uint256 approveExpiration;\r\n        uint256 loanExpiration;\r\n        uint256 acceptExpiration;\r\n        // Loan Details\r\n        uint256 principal;\r\n        uint256 interest;\r\n        // Loan State\r\n        State state;\r\n        // token\r\n        ERC20 token;\r\n    }\r\n\r\n    mapping(uint256 => Loan) loans;\r\n\r\n    uint256 loanIdCounter;\r\n\r\n    // Create new loan\r\n    function createLoan(\r\n        // actors\r\n        address _lenderAuto,\r\n        // secret Hashes\r\n        bytes32 _secretHashB1,\r\n        bytes32 _secretHashAutoB1,\r\n        uint256[3] memory _expirations,\r\n        // loan details\r\n        uint256 _principal,\r\n        uint256 _interest,\r\n        address _tokenAdress\r\n    ) public returns (uint256 loanId) {\r\n        // Increment loanIdCounter\r\n        loanIdCounter = loanIdCounter + 1;\r\n\r\n        // Add Loan to mapping\r\n        loans[loanIdCounter] = Loan({ // Actors\r\n            borrower: address(0),\r\n            lender: msg.sender,\r\n            lenderAuto: _lenderAuto, // Secret Hashes\r\n            secretHashA1: \"\",\r\n            secretHashB1: _secretHashB1,\r\n            secretHashAutoB1: _secretHashAutoB1, // Secrets\r\n            secretA1: \"\",\r\n            secretB1: \"\",\r\n            secretAutoB1: \"\", // Expiration dates\r\n            approveExpiration: _expirations[0],\r\n            loanExpiration: _expirations[1],\r\n            acceptExpiration: _expirations[2], // Loan details\r\n            principal: _principal,\r\n            interest: _interest,\r\n            token: ERC20(_tokenAdress), // Loan state\r\n            state: State.Open\r\n        });\r\n\r\n        // Emit event\r\n        emit LoanCreated(loanIdCounter);\r\n\r\n        return loanIdCounter;\r\n    }\r\n\r\n    function fetchLoan(uint256 _loanId)\r\n        public\r\n        view\r\n        returns (\r\n            address[3] memory actors,\r\n            bytes32[3] memory secretHashes,\r\n            bytes32[3] memory secrets,\r\n            uint256[3] memory expirations,\r\n            uint256[2] memory details,\r\n            State state,\r\n            ERC20 token\r\n        )\r\n    {\r\n        actors = [\r\n            loans[_loanId].borrower,\r\n            loans[_loanId].lender,\r\n            loans[_loanId].lenderAuto\r\n        ];\r\n        secretHashes = [\r\n            loans[_loanId].secretHashA1,\r\n            loans[_loanId].secretHashB1,\r\n            loans[_loanId].secretHashAutoB1\r\n        ];\r\n        secrets = [\r\n            loans[_loanId].secretA1,\r\n            loans[_loanId].secretB1,\r\n            loans[_loanId].secretAutoB1\r\n        ];\r\n        expirations = [\r\n            loans[_loanId].approveExpiration,\r\n            loans[_loanId].loanExpiration,\r\n            loans[_loanId].acceptExpiration\r\n        ];\r\n        state = loans[_loanId].state;\r\n        details = [loans[_loanId].principal, loans[_loanId].interest];\r\n        token = loans[_loanId].token;\r\n    }\r\n\r\n    function getBytes32ArrayForInput()\r\n        public\r\n        pure\r\n        returns (bytes32[2] memory b32Arr)\r\n    {\r\n        b32Arr = [bytes32(\"candidate1\"), bytes32(\"c2\")];\r\n    }\r\n\r\n    // Fund loan\r\n    function fund(uint256 _loanId) public {\r\n        require(loans[_loanId].state == State.Open);\r\n        loans[_loanId].token.transferFrom(\r\n            msg.sender,\r\n            address(this),\r\n            loans[_loanId].principal\r\n        );\r\n        loans[_loanId].state = State.Funded;\r\n        emit LoanFunded(\r\n            _loanId,\r\n            loans[_loanId].principal,\r\n            loans[_loanId].state\r\n        );\r\n    }\r\n\r\n    // Approve loan\r\n    function setBorrowerAndApprove(\r\n        uint256 _loanId,\r\n        address payable _borrower,\r\n        bytes32 _secretHashA1\r\n    ) public {\r\n        require(loans[_loanId].state == State.Funded);\r\n        require(now <= loans[_loanId].approveExpiration);\r\n        require(\r\n            msg.sender == loans[_loanId].lender ||\r\n                msg.sender == loans[_loanId].lenderAuto\r\n        );\r\n        loans[_loanId].state = State.Approved;\r\n        loans[_loanId].borrower = _borrower;\r\n        loans[_loanId].secretHashA1 = _secretHashA1;\r\n        emit LoanAssignedAndApproved(\r\n            _loanId,\r\n            _borrower,\r\n            _secretHashA1,\r\n            loans[_loanId].state\r\n        );\r\n    }\r\n\r\n    // Withdraw loan\r\n    // secretB1 is not necessary because we are checking state == 'approved'\r\n    function withdraw(uint256 _loanId, bytes32 _secretA1) public {\r\n        require(loans[_loanId].state == State.Approved);\r\n        require(\r\n            sha256(abi.encodePacked(_secretA1)) == loans[_loanId].secretHashA1\r\n        );\r\n        loans[_loanId].state = State.Withdrawn;\r\n        loans[_loanId].secretA1 = _secretA1;\r\n        loans[_loanId].token.transfer(\r\n            loans[_loanId].borrower,\r\n            loans[_loanId].principal\r\n        );\r\n        emit LoanPrincipalWithdrawn(\r\n            _loanId,\r\n            loans[_loanId].borrower,\r\n            loans[_loanId].principal,\r\n            _secretA1,\r\n            loans[_loanId].state\r\n        );\r\n    }\r\n\r\n    // Accept Repayment or cancel\r\n    // secretB2 es secretB1 ya que no hay secretB1 utilizado en `approve`\r\n    // separa accept y cancel para controlar correctamente el estado\r\n\r\n    function acceptRepayment(uint256 _loanId, bytes32 _secretB1) public {\r\n        require(\r\n            sha256(abi.encodePacked(_secretB1)) ==\r\n                loans[_loanId].secretHashB1 ||\r\n                sha256(abi.encodePacked(_secretB1)) ==\r\n                loans[_loanId].secretHashAutoB1,\r\n            \"Invalid secret\"\r\n        );\r\n        require(\r\n            now <= loans[_loanId].acceptExpiration,\r\n            \"Accept period expired\"\r\n        );\r\n        require(\r\n            loans[_loanId].state == State.Repaid,\r\n            \"The loan has not been repaid\"\r\n        );\r\n\r\n        // TO-DO: enviar cantidad correcta = principal + interest\r\n        loans[_loanId].state = State.Closed;\r\n        uint256 repayment = loans[_loanId].principal.add(\r\n            loans[_loanId].interest\r\n        );\r\n        loans[_loanId].token.transfer(loans[_loanId].lender, repayment);\r\n\r\n        emit LoanRepaymentAccepted(_loanId, repayment, loans[_loanId].state);\r\n    }\r\n\r\n    // La version de atomic loans tinene una posible vulnerabilidad que permite\r\n    // a `lender` cancelar el prestamo aunque `borrower` retirado el principal\r\n    // Revisar si unicamente se permitira cancelar antes de ser aprovado, o aun cuando\r\n    // no se haya retirado el principal por parte de Alice\r\n\r\n    function cancelLoanBeforePrincipalWithdraw(\r\n        uint256 _loanId,\r\n        bytes32 _secretB1\r\n    ) public {\r\n        require(\r\n            sha256(abi.encodePacked(_secretB1)) ==\r\n                loans[_loanId].secretHashB1 ||\r\n                sha256(abi.encodePacked(_secretB1)) ==\r\n                loans[_loanId].secretHashAutoB1,\r\n            \"Invalid secret\"\r\n        );\r\n        require(now <= loans[_loanId].acceptExpiration);\r\n        require(\r\n            loans[_loanId].state == State.Funded ||\r\n                loans[_loanId].state == State.Approved\r\n        );\r\n        loans[_loanId].state = State.Canceled;\r\n        uint256 principal = loans[_loanId].principal;\r\n        loans[_loanId].principal = 0;\r\n        loans[_loanId].token.transfer(loans[_loanId].lender, principal);\r\n        emit CancelLoan(_loanId, _secretB1, loans[_loanId].state);\r\n    }\r\n\r\n    // TO-DO\r\n    // Only allow to repay the exact amount\r\n    function payback(uint256 _loanId) public {\r\n        require(loans[_loanId].state == State.Withdrawn);\r\n        require(now <= loans[_loanId].loanExpiration);\r\n        // require(msg.sender == loans[_loanId].borrower);\r\n        uint256 repayment = loans[_loanId].principal.add(\r\n            loans[_loanId].interest\r\n        );\r\n        loans[_loanId].state = State.Repaid;\r\n        loans[_loanId].token.transferFrom(\r\n            loans[_loanId].borrower,\r\n            address(this),\r\n            repayment\r\n        );\r\n        emit Payback(\r\n            _loanId,\r\n            loans[_loanId].borrower,\r\n            repayment,\r\n            loans[_loanId].state\r\n        );\r\n    }\r\n\r\n    // TO-DO\r\n    // Only allow to refund payback that was actually paid, not the principal and interest (if it was a different amount)\r\n    function refundPayback(uint256 _loanId) public {\r\n        require(now > loans[_loanId].acceptExpiration);\r\n        require(loans[_loanId].state == State.Repaid);\r\n        require(msg.sender == loans[_loanId].borrower);\r\n        loans[_loanId].state = State.PaybackRefunded;\r\n        uint256 refund = loans[_loanId].principal.add(loans[_loanId].interest);\r\n        loans[_loanId].principal = 0;\r\n        loans[_loanId].interest = 0;\r\n        loans[_loanId].token.transfer(loans[_loanId].borrower, refund);\r\n        emit RefundPayback(\r\n            _loanId,\r\n            loans[_loanId].borrower,\r\n            refund,\r\n            loans[_loanId].state\r\n        );\r\n    }\r\n\r\n    // Events\r\n    event LoanCreated(uint256 loanId);\r\n    event LoanFunded(uint256 loanId, uint256 amount, State state);\r\n    event LoanAssignedAndApproved(\r\n        uint256 loanId,\r\n        address borrower,\r\n        bytes32 secretHashA1,\r\n        State state\r\n    );\r\n    event LoanPrincipalWithdrawn(\r\n        uint256 loanId,\r\n        address borrower,\r\n        uint256 amount,\r\n        bytes32 secretA1,\r\n        State state\r\n    );\r\n    event LoanRepaymentAccepted(uint256 loanId, uint256 amount, State state);\r\n    event CancelLoan(uint256 loanId, bytes32 secretB1, State state);\r\n    event Payback(\r\n        uint256 loanId,\r\n        address borrower,\r\n        uint256 amount,\r\n        State state\r\n    );\r\n    event RefundPayback(\r\n        uint256 loanId,\r\n        address borrower,\r\n        uint256 amount,\r\n        State state\r\n    );\r\n}\r\n",
    "sourcePath": "C:/Users/tardigrade/Desktop/blockchain2020/atomicLoan/contracts/BlitsLoans.sol",
    "compiler": {
        "name": "solc",
        "version": "0.6.2+commit.bacdbe57.Emscripten.clang"
    },
    "schemaVersion": "3.2.3",
    "updatedAt": "2020-08-23T04:54:31.146Z",
    "networkType": "ethereum",
    "devdoc": {
        "methods": {}
    },
    "userdoc": {
        "methods": {}
    }
}