{
  "contractName": "HarmonyLock",
  "abi": [
    {
      "anonymous": false,
      "inputs": [
        {
          "indexed": false,
          "internalType": "uint256",
          "name": "loanId",
          "type": "uint256"
        },
        {
          "indexed": false,
          "internalType": "address",
          "name": "lender",
          "type": "address"
        },
        {
          "indexed": false,
          "internalType": "uint256",
          "name": "amount",
          "type": "uint256"
        }
      ],
      "name": "SeizeCollateral",
      "type": "event"
    },
    {
      "anonymous": false,
      "inputs": [
        {
          "indexed": false,
          "internalType": "uint256",
          "name": "loanId",
          "type": "uint256"
        },
        {
          "indexed": false,
          "internalType": "address",
          "name": "borrower",
          "type": "address"
        },
        {
          "indexed": false,
          "internalType": "uint256",
          "name": "sCollateral",
          "type": "uint256"
        },
        {
          "indexed": false,
          "internalType": "uint256",
          "name": "rCollateral",
          "type": "uint256"
        }
      ],
      "name": "UnlockAndClose",
      "type": "event"
    },
    {
      "anonymous": false,
      "inputs": [
        {
          "indexed": false,
          "internalType": "uint256",
          "name": "loanId",
          "type": "uint256"
        },
        {
          "indexed": false,
          "internalType": "address",
          "name": "borrower",
          "type": "address"
        },
        {
          "indexed": false,
          "internalType": "uint256",
          "name": "amount",
          "type": "uint256"
        }
      ],
      "name": "UnlockRefundableCollateral",
      "type": "event"
    },
    {
      "anonymous": false,
      "inputs": [
        {
          "indexed": false,
          "internalType": "uint256",
          "name": "loanId",
          "type": "uint256"
        },
        {
          "indexed": false,
          "internalType": "address",
          "name": "borrower",
          "type": "address"
        },
        {
          "indexed": false,
          "internalType": "uint256",
          "name": "amount",
          "type": "uint256"
        }
      ],
      "name": "UnlockSeizableCollateral",
      "type": "event"
    },
    {
      "inputs": [],
      "name": "loanCounter",
      "outputs": [
        {
          "internalType": "uint256",
          "name": "",
          "type": "uint256"
        }
      ],
      "stateMutability": "view",
      "type": "function",
      "constant": true
    },
    {
      "inputs": [
        {
          "internalType": "address payable",
          "name": "_lender",
          "type": "address"
        },
        {
          "internalType": "bytes32",
          "name": "_secretHashA1",
          "type": "bytes32"
        },
        {
          "internalType": "bytes32",
          "name": "_secretHashB1",
          "type": "bytes32"
        },
        {
          "internalType": "bytes32",
          "name": "_secretHashAutoA1",
          "type": "bytes32"
        },
        {
          "internalType": "bytes32",
          "name": "_secretHashAutoB1",
          "type": "bytes32"
        },
        {
          "internalType": "uint256",
          "name": "_loanExpiration",
          "type": "uint256"
        },
        {
          "internalType": "uint256",
          "name": "_seizureExpiration",
          "type": "uint256"
        },
        {
          "internalType": "uint256",
          "name": "_collateralizationRatio",
          "type": "uint256"
        }
      ],
      "name": "lockCollateral",
      "outputs": [],
      "stateMutability": "payable",
      "type": "function",
      "payable": true
    },
    {
      "inputs": [
        {
          "internalType": "uint256",
          "name": "_loanId",
          "type": "uint256"
        }
      ],
      "name": "fetchLoan",
      "outputs": [
        {
          "internalType": "address payable[2]",
          "name": "actors",
          "type": "address[2]"
        },
        {
          "internalType": "bytes32[4]",
          "name": "secretHashes",
          "type": "bytes32[4]"
        },
        {
          "internalType": "bytes32[2]",
          "name": "secrets",
          "type": "bytes32[2]"
        },
        {
          "internalType": "uint256[2]",
          "name": "expirations",
          "type": "uint256[2]"
        },
        {
          "internalType": "uint256[3]",
          "name": "details",
          "type": "uint256[3]"
        },
        {
          "internalType": "enum HarmonyLock.State",
          "name": "state",
          "type": "uint8"
        }
      ],
      "stateMutability": "view",
      "type": "function",
      "constant": true
    },
    {
      "inputs": [
        {
          "internalType": "uint256",
          "name": "_loanId",
          "type": "uint256"
        },
        {
          "internalType": "bytes32",
          "name": "_secretB1",
          "type": "bytes32"
        }
      ],
      "name": "unlockCollateralAndCloseLoan",
      "outputs": [],
      "stateMutability": "nonpayable",
      "type": "function"
    },
    {
      "inputs": [
        {
          "internalType": "uint256",
          "name": "_loanId",
          "type": "uint256"
        }
      ],
      "name": "unlockRefundableCollateral",
      "outputs": [],
      "stateMutability": "nonpayable",
      "type": "function"
    },
    {
      "inputs": [
        {
          "internalType": "uint256",
          "name": "_loanId",
          "type": "uint256"
        },
        {
          "internalType": "bytes32",
          "name": "_secretA1",
          "type": "bytes32"
        }
      ],
      "name": "unlockSeizableCollateral",
      "outputs": [],
      "stateMutability": "nonpayable",
      "type": "function"
    },
    {
      "inputs": [
        {
          "internalType": "uint256",
          "name": "_loanId",
          "type": "uint256"
        },
        {
          "internalType": "bytes32",
          "name": "_secretA1",
          "type": "bytes32"
        }
      ],
      "name": "seizeCollateral",
      "outputs": [],
      "stateMutability": "nonpayable",
      "type": "function"
    }
  ],
  "bytecode": "0x60806040526000805534801561001457600080fd5b50611a7d806100246000396000f3fe6080604052600436106100705760003560e01c80635f0acff61161004e5780635f0acff6146101205780637b937cbe1461026857806384bd888f146102f35780639617bcdf1461033857610070565b806334d9289e146100755780633c71be5e146100a05780635eda7a35146100e5575b600080fd5b34801561008157600080fd5b5061008a61037d565b6040518082815260200191505060405180910390f35b3480156100ac57600080fd5b506100e3600480360360408110156100c357600080fd5b810190808035906020019092919080359060200190929190505050610383565b005b3480156100f157600080fd5b5061011e6004803603602081101561010857600080fd5b81019080803590602001909291905050506107a4565b005b34801561012c57600080fd5b506101596004803603602081101561014357600080fd5b81019080803590602001909291905050506109e7565b6040518087600260200280838360005b83811015610184578082015181840152602081019050610169565b5050505090500186600460200280838360005b838110156101b2578082015181840152602081019050610197565b5050505090500185600260200280838360005b838110156101e05780820151818401526020810190506101c5565b5050505090500184600260200280838360005b8381101561020e5780820151818401526020810190506101f3565b5050505090500183600360200280838360005b8381101561023c578082015181840152602081019050610221565b5050505090500182600181111561024f57fe5b60ff168152602001965050505050505060405180910390f35b6102f1600480360361010081101561027f57600080fd5b81019080803573ffffffffffffffffffffffffffffffffffffffff16906020019092919080359060200190929190803590602001909291908035906020019092919080359060200190929190803590602001909291908035906020019092919080359060200190929190505050610c7b565b005b3480156102ff57600080fd5b506103366004803603604081101561031657600080fd5b810190808035906020019092919080359060200190929190505050610edc565b005b34801561034457600080fd5b5061037b6004803603604081101561035b57600080fd5b8101908080359060200190929190803590602001909291905050506112fc565b005b60005481565b6001600083815260200190815260200160002060020154600282604051602001808281526020019150506040516020818303038152906040526040518082805190602001908083835b602083106103ef57805182526020820191506020810190506020830392506103cc565b6001836020036101000a038019825116818451168082178552505050505050905001915050602060405180830381855afa158015610431573d6000803e3d6000fd5b5050506040513d602081101561044657600080fd5b8101908080519060200190929190505050148061053457506001600083815260200190815260200160002060040154600282604051602001808281526020019150506040516020818303038152906040526040518082805190602001908083835b602083106104ca57805182526020820191506020810190506020830392506104a7565b6001836020036101000a038019825116818451168082178552505050505050905001915050602060405180830381855afa15801561050c573d6000803e3d6000fd5b5050506040513d602081101561052157600080fd5b8101908080519060200190929190505050145b61053d57600080fd5b6001600083815260200190815260200160002060080154421161055f57600080fd5b600160008381526020019081526020016000206009015442111561058257600080fd5b6000600181111561058f57fe5b60016000848152602001908152602001600020600d0160009054906101000a900460ff1660018111156105be57fe5b146105c857600080fd5b600060016000848152602001908152602001600020600a0154116105eb57600080fd5b600060016000848152602001908152602001600020600a01549050600060016000858152602001908152602001600020600a0181905550600060016000858152602001908152602001600020600b01541415610679576001806000858152602001908152602001600020600d0160006101000a81548160ff0219169083600181111561067357fe5b02179055505b6001600084815260200190815260200160002060010160009054906101000a900473ffffffffffffffffffffffffffffffffffffffff1673ffffffffffffffffffffffffffffffffffffffff166108fc829081150290604051600060405180830381858888f193505050501580156106f5573d6000803e3d6000fd5b507f5589c03e648fc70418510da9bec8b941e0b1bd6247ccee782830c17972f15666836001600086815260200190815260200160002060010160009054906101000a900473ffffffffffffffffffffffffffffffffffffffff1683604051808481526020018373ffffffffffffffffffffffffffffffffffffffff1673ffffffffffffffffffffffffffffffffffffffff168152602001828152602001935050505060405180910390a1505050565b600160008281526020019081526020016000206008015442116107c657600080fd5b600060018111156107d357fe5b60016000838152602001908152602001600020600d0160009054906101000a900460ff16600181111561080257fe5b1461080c57600080fd5b600060016000838152602001908152602001600020600b01541161082f57600080fd5b600060016000838152602001908152602001600020600b01549050600060016000848152602001908152602001600020600b0181905550600060016000848152602001908152602001600020600a015414156108bd576001806000848152602001908152602001600020600d0160006101000a81548160ff021916908360018111156108b757fe5b02179055505b6001600083815260200190815260200160002060000160009054906101000a900473ffffffffffffffffffffffffffffffffffffffff1673ffffffffffffffffffffffffffffffffffffffff166108fc829081150290604051600060405180830381858888f19350505050158015610939573d6000803e3d6000fd5b507fba118e126c88ecfcc215c2ef2b547f315d13358c986ec33e2f424141d613180c826001600085815260200190815260200160002060000160009054906101000a900473ffffffffffffffffffffffffffffffffffffffff1683604051808481526020018373ffffffffffffffffffffffffffffffffffffffff1673ffffffffffffffffffffffffffffffffffffffff168152602001828152602001935050505060405180910390a15050565b6109ef61197c565b6109f761199e565b6109ff6119c0565b610a076119e2565b610a0f611a04565b60006040518060400160405280600160008a815260200190815260200160002060000160009054906101000a900473ffffffffffffffffffffffffffffffffffffffff1673ffffffffffffffffffffffffffffffffffffffff1673ffffffffffffffffffffffffffffffffffffffff168152602001600160008a815260200190815260200160002060010160009054906101000a900473ffffffffffffffffffffffffffffffffffffffff1673ffffffffffffffffffffffffffffffffffffffff1673ffffffffffffffffffffffffffffffffffffffff1681525095506040518060800160405280600160008a8152602001908152602001600020600201548152602001600160008a8152602001908152602001600020600301548152602001600160008a8152602001908152602001600020600401548152602001600160008a81526020019081526020016000206005015481525094506040518060400160405280600160008a8152602001908152602001600020600601548152602001600160008a81526020019081526020016000206007015481525093506040518060400160405280600160008a8152602001908152602001600020600801548152602001600160008a815260200190815260200160002060090154815250925060016000888152602001908152602001600020600d0160009054906101000a900460ff1690506040518060600160405280600160008a8152602001908152602001600020600a01548152602001600160008a8152602001908152602001600020600b01548152602001600160008a8152602001908152602001600020600c0154815250915091939550919395565b6103e88111158015610c8e575060648110155b610c9757600080fd5b60016000540160008190555060006064905060003490506000610cd584610cc7848661165490919063ffffffff16565b6116da90919063ffffffff16565b90506000610cec828461172490919063ffffffff16565b9050604051806101c001604052803373ffffffffffffffffffffffffffffffffffffffff1681526020018d73ffffffffffffffffffffffffffffffffffffffff1681526020018c81526020018b81526020018a8152602001898152602001600080191681526020016000801916815260200188815260200187815260200183815260200182815260200186815260200160006001811115610d8957fe5b815250600160008054815260200190815260200160002060008201518160000160006101000a81548173ffffffffffffffffffffffffffffffffffffffff021916908373ffffffffffffffffffffffffffffffffffffffff16021790555060208201518160010160006101000a81548173ffffffffffffffffffffffffffffffffffffffff021916908373ffffffffffffffffffffffffffffffffffffffff16021790555060408201518160020155606082015181600301556080820151816004015560a0820151816005015560c0820151816006015560e082015181600701556101008201518160080155610120820151816009015561014082015181600a015561016082015181600b015561018082015181600c01556101a082015181600d0160006101000a81548160ff02191690836001811115610ec657fe5b0217905550905050505050505050505050505050565b6001600083815260200190815260200160002060020154600282604051602001808281526020019150506040516020818303038152906040526040518082805190602001908083835b60208310610f485780518252602082019150602081019050602083039250610f25565b6001836020036101000a038019825116818451168082178552505050505050905001915050602060405180830381855afa158015610f8a573d6000803e3d6000fd5b5050506040513d6020811015610f9f57600080fd5b8101908080519060200190929190505050148061108d57506001600083815260200190815260200160002060040154600282604051602001808281526020019150506040516020818303038152906040526040518082805190602001908083835b602083106110235780518252602082019150602081019050602083039250611000565b6001836020036101000a038019825116818451168082178552505050505050905001915050602060405180830381855afa158015611065573d6000803e3d6000fd5b5050506040513d602081101561107a57600080fd5b8101908080519060200190929190505050145b61109657600080fd5b600160008381526020019081526020016000206008015442116110b857600080fd5b600160008381526020019081526020016000206009015442116110da57600080fd5b600060018111156110e757fe5b60016000848152602001908152602001600020600d0160009054906101000a900460ff16600181111561111657fe5b1461112057600080fd5b600060016000848152602001908152602001600020600a01541161114357600080fd5b600060016000848152602001908152602001600020600a01549050600060016000858152602001908152602001600020600a0181905550600060016000858152602001908152602001600020600b015414156111d1576001806000858152602001908152602001600020600d0160006101000a81548160ff021916908360018111156111cb57fe5b02179055505b6001600084815260200190815260200160002060000160009054906101000a900473ffffffffffffffffffffffffffffffffffffffff1673ffffffffffffffffffffffffffffffffffffffff166108fc829081150290604051600060405180830381858888f1935050505015801561124d573d6000803e3d6000fd5b507f10cd1b795402643d7006cca8a223fc0f6891b19bae8ccb5651609c8986397c5d836001600086815260200190815260200160002060000160009054906101000a900473ffffffffffffffffffffffffffffffffffffffff1683604051808481526020018373ffffffffffffffffffffffffffffffffffffffff1673ffffffffffffffffffffffffffffffffffffffff168152602001828152602001935050505060405180910390a1505050565b6000600181111561130957fe5b60016000848152602001908152602001600020600d0160009054906101000a900460ff16600181111561133857fe5b1461134257600080fd5b600160008381526020019081526020016000206008015442111561136557600080fd5b6001600083815260200190815260200160002060030154600282604051602001808281526020019150506040516020818303038152906040526040518082805190602001908083835b602083106113d157805182526020820191506020810190506020830392506113ae565b6001836020036101000a038019825116818451168082178552505050505050905001915050602060405180830381855afa158015611413573d6000803e3d6000fd5b5050506040513d602081101561142857600080fd5b81019080805190602001909291905050501461144357600080fd5b6001806000848152602001908152602001600020600d0160006101000a81548160ff0219169083600181111561147557fe5b021790555060006114bb60016000858152602001908152602001600020600b015460016000868152602001908152602001600020600a015461176e90919063ffffffff16565b9050600060016000858152602001908152602001600020600a0181905550600060016000858152602001908152602001600020600b01819055506001600084815260200190815260200160002060000160009054906101000a900473ffffffffffffffffffffffffffffffffffffffff1673ffffffffffffffffffffffffffffffffffffffff166108fc829081150290604051600060405180830381858888f19350505050158015611571573d6000803e3d6000fd5b507f32032825d60ca8ae1e54725d3c49e9ce09344634b19e5154a891de9f3058899b836001600086815260200190815260200160002060000160009054906101000a900473ffffffffffffffffffffffffffffffffffffffff16600160008781526020019081526020016000206009015460016000888152602001908152602001600020600b0154604051808581526020018473ffffffffffffffffffffffffffffffffffffffff1673ffffffffffffffffffffffffffffffffffffffff16815260200183815260200182815260200194505050505060405180910390a1505050565b60008083141561166757600090506116d4565b600082840290508284828161167857fe5b04146116cf576040517f08c379a0000000000000000000000000000000000000000000000000000000008152600401808060200182810382526021815260200180611a276021913960400191505060405180910390fd5b809150505b92915050565b600061171c83836040518060400160405280601a81526020017f536166654d6174683a206469766973696f6e206279207a65726f0000000000008152506117f6565b905092915050565b600061176683836040518060400160405280601e81526020017f536166654d6174683a207375627472616374696f6e206f766572666c6f7700008152506118bc565b905092915050565b6000808284019050838110156117ec576040517f08c379a000000000000000000000000000000000000000000000000000000000815260040180806020018281038252601b8152602001807f536166654d6174683a206164646974696f6e206f766572666c6f77000000000081525060200191505060405180910390fd5b8091505092915050565b600080831182906118a2576040517f08c379a00000000000000000000000000000000000000000000000000000000081526004018080602001828103825283818151815260200191508051906020019080838360005b8381101561186757808201518184015260208101905061184c565b50505050905090810190601f1680156118945780820380516001836020036101000a031916815260200191505b509250505060405180910390fd5b5060008385816118ae57fe5b049050809150509392505050565b6000838311158290611969576040517f08c379a00000000000000000000000000000000000000000000000000000000081526004018080602001828103825283818151815260200191508051906020019080838360005b8381101561192e578082015181840152602081019050611913565b50505050905090810190601f16801561195b5780820380516001836020036101000a031916815260200191505b509250505060405180910390fd5b5060008385039050809150509392505050565b6040518060400160405280600290602082028038833980820191505090505090565b6040518060800160405280600490602082028038833980820191505090505090565b6040518060400160405280600290602082028038833980820191505090505090565b6040518060400160405280600290602082028038833980820191505090505090565b604051806060016040528060039060208202803883398082019150509050509056fe536166654d6174683a206d756c7469706c69636174696f6e206f766572666c6f77a264697066735822122082b71be57658e170e556f18ede9b0d604cef870a12da4f94f466039d1bc93fa664736f6c63430006020033",
  "source": "pragma solidity ^0.6.0;\r\nimport \"openzeppelin-solidity/contracts/token/ERC20/ERC20.sol\";\r\nimport \"openzeppelin-solidity/contracts/math/SafeMath.sol\";\r\n\r\ncontract HarmonyLock {\r\n    using SafeMath for uint256;\r\n\r\n    enum State {Locked, Closed}\r\n\r\n    struct Loan {\r\n        address payable borrower;\r\n        address payable lender;\r\n        bytes32 secretHashA1;\r\n        bytes32 secretHashB1;\r\n        bytes32 secretHashAutoA1;\r\n        bytes32 secretHashAutoB1;\r\n        bytes32 secretA1;\r\n        bytes32 secretB1;\r\n        uint256 loanExpiration;\r\n        uint256 seizureExpiration;\r\n        uint256 seizableCollateral;\r\n        uint256 refundableCollateral;\r\n        uint256 cRatio;\r\n        State state;\r\n    }\r\n\r\n    uint256 public loanCounter = 0;\r\n    mapping(uint256 => Loan) loans;\r\n\r\n    function lockCollateral(\r\n        address payable _lender,\r\n        bytes32 _secretHashA1,\r\n        bytes32 _secretHashB1,\r\n        bytes32 _secretHashAutoA1,\r\n        bytes32 _secretHashAutoB1,\r\n        uint256 _loanExpiration,\r\n        uint256 _seizureExpiration,\r\n        uint256 _collateralizationRatio\r\n    ) public payable {\r\n        require(_collateralizationRatio <= 1000 && _collateralizationRatio >= 100);\r\n\r\n        loanCounter = loanCounter + 1;\r\n        uint256 baseRatio = 100;\r\n        uint256 amount = msg.value;\r\n        uint256 seizableCollateral = baseRatio.mul(amount).div(_collateralizationRatio);\r\n        uint256 refundableCollateral = amount.sub(seizableCollateral);\r\n\r\n        loans[loanCounter] = Loan({\r\n            borrower: msg.sender,\r\n            lender: _lender,\r\n            secretHashA1: _secretHashA1,\r\n            secretHashB1: _secretHashB1,\r\n            secretHashAutoA1: _secretHashAutoA1,\r\n            secretHashAutoB1: _secretHashAutoB1,\r\n            secretA1: \"\",\r\n            secretB1: \"\",\r\n            loanExpiration: _loanExpiration,\r\n            seizureExpiration: _seizureExpiration,\r\n            seizableCollateral: seizableCollateral,\r\n            refundableCollateral: refundableCollateral,\r\n            cRatio: _collateralizationRatio,\r\n            state: State.Locked\r\n        });\r\n    }\r\n\r\n    function fetchLoan(uint256 _loanId)\r\n        public\r\n        view\r\n        returns (\r\n            address payable[2] memory actors,\r\n            bytes32[4] memory secretHashes,\r\n            bytes32[2] memory secrets,\r\n            uint256[2] memory expirations,\r\n            uint256[3] memory details,\r\n            State state\r\n        )\r\n    {\r\n        actors = [loans[_loanId].borrower, loans[_loanId].lender];\r\n        secretHashes = [\r\n            loans[_loanId].secretHashA1,\r\n            loans[_loanId].secretHashB1,\r\n            loans[_loanId].secretHashAutoA1,\r\n            loans[_loanId].secretHashAutoB1\r\n        ];\r\n        secrets = [loans[_loanId].secretA1, loans[_loanId].secretB1];\r\n        expirations = [\r\n            loans[_loanId].loanExpiration,\r\n            loans[_loanId].seizureExpiration\r\n        ];\r\n        state = loans[_loanId].state;\r\n        details = [\r\n            loans[_loanId].seizableCollateral,\r\n            loans[_loanId].refundableCollateral,\r\n            loans[_loanId].cRatio\r\n        ];\r\n    }\r\n\r\n    // If the lender is not satisfied with the collateral locked by the borrower, then the lender\r\n    // can refund their loan amount by revealing secretB2, which will subsequently allow the borrower\r\n    // to refund the collateral amount they deposited\r\n    // Borrower can refund when the Loan repayment is accepted or the loan is cancelled (before Alice withdraws the principal)\r\n\r\n    // Withdraw Pattern\r\n    // https://solidity.readthedocs.io/en/develop/common-patterns.html#withdrawal-from-contracts\r\n\r\n    // Refund Collateral function\r\n    // https://github.com/AtomicLoans/chainabstractionlayer/blob/dev/packages/bitcoin-collateral-provider/lib/BitcoinCollateralProvider.js#L246\r\n\r\n    // Durante `loanPeriod` y seizurePeriod && seizable => se require secretoB2?\r\n    // Si es 'seizurePeriod' && 'requiresSecret' ? se envia a Lender : se envia a Borrower\r\n\r\n    // secretA2 or secretB2\r\n\r\n    // Used when the Lender Accepts repayment or Cancels the loan\r\n    function unlockCollateralAndCloseLoan(uint256 _loanId, bytes32 _secretB1)\r\n        public\r\n    {\r\n        require(loans[_loanId].state == State.Locked);\r\n        require(now <= loans[_loanId].loanExpiration);\r\n        require(\r\n            sha256(abi.encodePacked(_secretB1)) == loans[_loanId].secretHashB1\r\n        );\r\n\r\n        // Change loan's state\r\n        loans[_loanId].state = State.Closed;\r\n\r\n        // Zero collateral amount\r\n        uint256 tCollateral = loans[_loanId].seizableCollateral.add(\r\n            loans[_loanId].refundableCollateral\r\n        );\r\n        loans[_loanId].seizableCollateral = 0;\r\n        loans[_loanId].refundableCollateral = 0;\r\n\r\n        // Refund the entire collateral to the borrower\r\n        loans[_loanId].borrower.transfer(tCollateral);\r\n\r\n        // Emit unlockCollateralAndCloseLoan event\r\n        emit UnlockAndClose(\r\n            _loanId,\r\n            loans[_loanId].borrower,\r\n            loans[_loanId].seizureExpiration,\r\n            loans[_loanId].refundableCollateral\r\n        );\r\n    }\r\n\r\n    // Can be used once the loan expires\r\n    function unlockRefundableCollateral(uint256 _loanId) public {\r\n        require(now > loans[_loanId].loanExpiration);\r\n        require(loans[_loanId].state == State.Locked);\r\n        require(loans[_loanId].refundableCollateral > 0);\r\n        uint256 rCollateral = loans[_loanId].refundableCollateral;\r\n        // Zero collateral amount\r\n        loans[_loanId].refundableCollateral = 0;\r\n        // Close loan\r\n        if (loans[_loanId].seizableCollateral == 0) {\r\n            loans[_loanId].state = State.Closed;\r\n        }\r\n        // Refund rCollateral to borrower\r\n        loans[_loanId].borrower.transfer(rCollateral);\r\n\r\n        emit UnlockRefundableCollateral(\r\n            _loanId,\r\n            loans[_loanId].borrower,\r\n            rCollateral\r\n        );\r\n    }\r\n\r\n    function unlockSeizableCollateral(uint256 _loanId, bytes32 _secretA1)\r\n        public\r\n    {\r\n        require(\r\n            sha256(abi.encodePacked(_secretA1)) ==\r\n                loans[_loanId].secretHashA1 ||\r\n                sha256(abi.encodePacked(_secretA1)) ==\r\n                loans[_loanId].secretHashAutoA1\r\n        );\r\n        require(now > loans[_loanId].loanExpiration);\r\n        require(now > loans[_loanId].seizureExpiration);\r\n        require(loans[_loanId].state == State.Locked);\r\n        require(loans[_loanId].seizableCollateral > 0);\r\n        uint256 sCollateral = loans[_loanId].seizableCollateral;\r\n        // Zero collateral amount\r\n        loans[_loanId].seizableCollateral = 0;\r\n        // Close Loan\r\n        if (loans[_loanId].refundableCollateral == 0) {\r\n            loans[_loanId].state = State.Closed;\r\n        }\r\n        //  Refund sCollateral to borrower\r\n        loans[_loanId].borrower.transfer(sCollateral);\r\n        emit UnlockSeizableCollateral(\r\n            _loanId,\r\n            loans[_loanId].borrower,\r\n            sCollateral\r\n        );\r\n    }\r\n\r\n    // This function can only be used by the lender if he has secretA1\r\n    function seizeCollateral(uint256 _loanId, bytes32 _secretA1) public {\r\n        require(\r\n            sha256(abi.encodePacked(_secretA1)) ==\r\n                loans[_loanId].secretHashA1 ||\r\n                sha256(abi.encodePacked(_secretA1)) ==\r\n                loans[_loanId].secretHashAutoA1\r\n        );\r\n        require(now > loans[_loanId].loanExpiration);\r\n        require(now <= loans[_loanId].seizureExpiration);\r\n        require(loans[_loanId].state == State.Locked);\r\n        require(loans[_loanId].seizableCollateral > 0);\r\n        uint256 sCollateral = loans[_loanId].seizableCollateral;\r\n        // Zero collateral amount\r\n        loans[_loanId].seizableCollateral = 0;\r\n        // Close loan\r\n        if (loans[_loanId].refundableCollateral == 0) {\r\n            loans[_loanId].state = State.Closed;\r\n        }\r\n        // Refund sColltareal to lender\r\n        loans[_loanId].lender.transfer(sCollateral);\r\n        emit SeizeCollateral(_loanId, loans[_loanId].lender, sCollateral);\r\n    }\r\n\r\n    // Events\r\n    event UnlockAndClose(\r\n        uint256 loanId,\r\n        address borrower,\r\n        uint256 sCollateral,\r\n        uint256 rCollateral\r\n    );\r\n\r\n    event UnlockRefundableCollateral(\r\n        uint256 loanId,\r\n        address borrower,\r\n        uint256 amount\r\n    );\r\n    event UnlockSeizableCollateral(\r\n        uint256 loanId,\r\n        address borrower,\r\n        uint256 amount\r\n    );\r\n    event SeizeCollateral(uint256 loanId, address lender, uint256 amount);\r\n}\r\n",
  "sourcePath": "C:/Users/tardigrade/Desktop/blockchain2020/atomicLoan/contracts/HarmonyLock.sol",
  "compiler": {
    "name": "solc",
    "version": "0.6.2+commit.bacdbe57.Emscripten.clang"
  },
  "schemaVersion": "3.2.3",
  "updatedAt": "2020-08-23T22:45:25.701Z",
  "networkType": "ethereum",
  "devdoc": {
    "methods": {}
  },
  "userdoc": {
    "methods": {}
  }
}